{
  "contractName": "SimpleStorage",
  "abi": [
    {
      "constant": false,
      "inputs": [
        {
          "name": "t",
          "type": "string"
        },
        {
          "name": "c",
          "type": "string"
        },
        {
          "name": "time",
          "type": "string"
        }
      ],
      "name": "setPost",
      "outputs": [],
      "payable": false,
      "stateMutability": "nonpayable",
      "type": "function"
    },
    {
      "constant": true,
      "inputs": [],
      "name": "getAllPostsNumber",
      "outputs": [
        {
          "name": "",
          "type": "uint256"
        }
      ],
      "payable": false,
      "stateMutability": "view",
      "type": "function"
    },
    {
      "constant": true,
      "inputs": [
        {
          "name": "number",
          "type": "uint256"
        }
      ],
      "name": "getPostBySeq",
      "outputs": [
        {
          "name": "",
          "type": "uint256"
        },
        {
          "name": "",
          "type": "string"
        },
        {
          "name": "",
          "type": "string"
        },
        {
          "name": "",
          "type": "address"
        },
        {
          "name": "",
          "type": "string"
        }
      ],
      "payable": false,
      "stateMutability": "view",
      "type": "function"
    },
    {
      "constant": false,
      "inputs": [
        {
          "name": "number",
          "type": "uint256"
        },
        {
          "name": "w",
          "type": "string"
        },
        {
          "name": "t",
          "type": "string"
        }
      ],
      "name": "setWord",
      "outputs": [],
      "payable": false,
      "stateMutability": "nonpayable",
      "type": "function"
    },
    {
      "constant": true,
      "inputs": [
        {
          "name": "number",
          "type": "uint256"
        }
      ],
      "name": "getAllWordsNumber",
      "outputs": [
        {
          "name": "",
          "type": "uint256"
        }
      ],
      "payable": false,
      "stateMutability": "view",
      "type": "function"
    },
    {
      "constant": true,
      "inputs": [
        {
          "name": "number",
          "type": "uint256"
        },
        {
          "name": "index",
          "type": "uint256"
        }
      ],
      "name": "getAllWords",
      "outputs": [
        {
          "name": "",
          "type": "uint256"
        },
        {
          "name": "",
          "type": "string"
        },
        {
          "name": "",
          "type": "address"
        },
        {
          "name": "",
          "type": "string"
        }
      ],
      "payable": false,
      "stateMutability": "view",
      "type": "function"
    }
  ],
  "bytecode": "0x608060405234801561001057600080fd5b50610dd9806100206000396000f300608060405260043610610078576000357c0100000000000000000000000000000000000000000000000000000000900463ffffffff168063179852e01461007d57806349bca2e5146101d35780634ed01d881461038b5780639499e81314610444578063a139f06414610539578063a70db2551461057a575b600080fd5b34801561008957600080fd5b506100b260048036038101908080359060200190929190803590602001909291905050506105a5565b60405180858152602001806020018473ffffffffffffffffffffffffffffffffffffffff1673ffffffffffffffffffffffffffffffffffffffff16815260200180602001838103835286818151815260200191508051906020019080838360005b8381101561012e578082015181840152602081019050610113565b50505050905090810190601f16801561015b5780820380516001836020036101000a031916815260200191505b50838103825284818151815260200191508051906020019080838360005b83811015610194578082015181840152602081019050610179565b50505050905090810190601f1680156101c15780820380516001836020036101000a031916815260200191505b50965050505050505060405180910390f35b3480156101df57600080fd5b506101fe600480360381019080803590602001909291905050506107e5565b6040518086815260200180602001806020018573ffffffffffffffffffffffffffffffffffffffff1673ffffffffffffffffffffffffffffffffffffffff16815260200180602001848103845288818151815260200191508051906020019080838360005b8381101561027e578082015181840152602081019050610263565b50505050905090810190601f1680156102ab5780820380516001836020036101000a031916815260200191505b50848103835287818151815260200191508051906020019080838360005b838110156102e45780820151818401526020810190506102c9565b50505050905090810190601f1680156103115780820380516001836020036101000a031916815260200191505b50848103825285818151815260200191508051906020019080838360005b8381101561034a57808201518184015260208101905061032f565b50505050905090810190601f1680156103775780820380516001836020036101000a031916815260200191505b509850505050505050505060405180910390f35b34801561039757600080fd5b5061044260048036038101908080359060200190929190803590602001908201803590602001908080601f0160208091040260200160405190810160405280939291908181526020018383808284378201915050505050509192919290803590602001908201803590602001908080601f0160208091040260200160405190810160405280939291908181526020018383808284378201915050505050509192919290505050610a86565b005b34801561045057600080fd5b50610537600480360381019080803590602001908201803590602001908080601f0160208091040260200160405190810160405280939291908181526020018383808284378201915050505050509192919290803590602001908201803590602001908080601f0160208091040260200160405190810160405280939291908181526020018383808284378201915050505050509192919290803590602001908201803590602001908080601f0160208091040260200160405190810160405280939291908181526020018383808284378201915050505050509192919290505050610b9f565b005b34801561054557600080fd5b5061056460048036038101908080359060200190929190505050610cd3565b6040518082815260200191505060405180910390f35b34801561058657600080fd5b5061058f610cfc565b6040518082815260200191505060405180910390f35b60006060600060606000806000888154811015156105bf57fe5b906000526020600020906007020160060154141561060d57600033819150602060405190810160405280600081525090602060405190810160405280600081525094509450945094506107db565b60008781548110151561061c57fe5b90600052602060002090600702019050806006015481600501600088815260200190815260200160002060000182600501600089815260200190815260200160002060010160009054906101000a900473ffffffffffffffffffffffffffffffffffffffff168360050160008a8152602001908152602001600020600201828054600181600116156101000203166002900480601f01602080910402602001604051908101604052809291908181526020018280546001816001161561010002031660029004801561072f5780601f106107045761010080835404028352916020019161072f565b820191906000526020600020905b81548152906001019060200180831161071257829003601f168201915b50505050509250808054600181600116156101000203166002900480601f0160208091040260200160405190810160405280929190818152602001828054600181600116156101000203166002900480156107cb5780601f106107a0576101008083540402835291602001916107cb565b820191906000526020600020905b8154815290600101906020018083116107ae57829003601f168201915b5050505050905094509450945094505b5092959194509250565b600060608060006060600080600080549050141561084757600033819150602060405190810160405280600081525090602060405190810160405280600081525090602060405190810160405280600081525095509550955095509550610a7c565b60008781548110151561085657fe5b9060005260206000209060070201905060008054905081600001826001018360020160009054906101000a900473ffffffffffffffffffffffffffffffffffffffff1684600301838054600181600116156101000203166002900480601f0160208091040260200160405190810160405280929190818152602001828054600181600116156101000203166002900480156109325780601f1061090757610100808354040283529160200191610932565b820191906000526020600020905b81548152906001019060200180831161091557829003601f168201915b50505050509350828054600181600116156101000203166002900480601f0160208091040260200160405190810160405280929190818152602001828054600181600116156101000203166002900480156109ce5780601f106109a3576101008083540402835291602001916109ce565b820191906000526020600020905b8154815290600101906020018083116109b157829003601f168201915b50505050509250808054600181600116156101000203166002900480601f016020809104026020016040519081016040528092919081815260200182805460018160011615610100020316600290048015610a6a5780601f10610a3f57610100808354040283529160200191610a6a565b820191906000526020600020905b815481529060010190602001808311610a4d57829003601f168201915b50505050509050955095509550955095505b5091939590929450565b60008084815481101515610a9657fe5b906000526020600020906007020190506080604051908101604052808481526020013373ffffffffffffffffffffffffffffffffffffffff16815260200183815260200185815250816005016000836006015481526020019081526020016000206000820151816000019080519060200190610b13929190610d08565b5060208201518160010160006101000a81548173ffffffffffffffffffffffffffffffffffffffff021916908373ffffffffffffffffffffffffffffffffffffffff1602179055506040820151816002019080519060200190610b77929190610d08565b5060608201518160030155905050806006016000815480929190600101919050555050505050565b600060c0604051908101604052808581526020018481526020013373ffffffffffffffffffffffffffffffffffffffff16815260200183815260200160016000805490500181526020016000815250908060018154018082558091505090600182039060005260206000209060070201600090919290919091506000820151816000019080519060200190610c35929190610d08565b506020820151816001019080519060200190610c52929190610d08565b5060408201518160020160006101000a81548173ffffffffffffffffffffffffffffffffffffffff021916908373ffffffffffffffffffffffffffffffffffffffff1602179055506060820151816003019080519060200190610cb6929190610d08565b506080820151816004015560a08201518160060155505050505050565b60008082815481101515610ce357fe5b9060005260206000209060070201600601549050919050565b60008080549050905090565b828054600181600116156101000203166002900490600052602060002090601f016020900481019282601f10610d4957805160ff1916838001178555610d77565b82800160010185558215610d77579182015b82811115610d76578251825591602001919060010190610d5b565b5b509050610d849190610d88565b5090565b610daa91905b80821115610da6576000816000905550600101610d8e565b5090565b905600a165627a7a723058204b22b14f5b43378529b336bdcdfbc1741c7feb01400507596686b622135f143a0029",
  "source": "pragma solidity ^0.4.24;\n\ncontract SimpleStorage {\n    \n  //留言结构体\n  struct Message {\n      string word;       //留言内容\n      address from;      //留言者地址\n      string timestamp;  //留言的unix时间戳\n      uint id;           //被留言的帖子的id\n  }\n\n  //帖子的结构体\n  struct Post {\n    string title;        //帖子的标题\n    string content;      //帖子的内容\n    address from;        //发帖人\n    string timestamp;    //帖子的unix时间戳\n    uint id;             //帖子的ID\n    mapping(uint => Message) words; //帖子的留言\n    uint wordsSize;\n  }\n\n  Post[] private posts;   //存储所有的帖子\n\n  //发送一个帖子\n  function setPost(string t,string c,string time)public{\n    posts.push(Post({\n      title: t,\n      content: c,\n      from: msg.sender,\n      timestamp: time,\n      id: posts.length+1,\n      wordsSize: 0\n    }));\n  }\n\n  //得到所有的帖子的数量\n  function getAllPostsNumber() public view returns (uint){\n    return posts.length;\n  }\n\n  //根据序号得到一个帖子\n  function getPostBySeq(uint number) public view returns (uint,string,string,address,string){\n    if(posts.length == 0){\n      return(0,\"\",\"\",msg.sender,\"\");\n    }else{\n      Post storage result = posts[number];\n      return(posts.length,result.title,result.content,result.from,result.timestamp);\n    }\n  }\n\n  //发送一条留言\n  function setWord(uint number,string w,string t) public{\n    Post storage p = posts[number];\n    p.words[p.wordsSize] = Message({\n      word: w,\n      from: msg.sender,\n      timestamp: t,\n      id: number\n    });\n     \n    p.wordsSize++;\n  }\n  \n  //得到一个帖子中留言的数量\n  function getAllWordsNumber(uint number) public view returns (uint){\n    return posts[number].wordsSize;\n  }\n\n  //得到一个帖子的一条留言\n  function getAllWords(uint number,uint index) public view returns (uint,string,address,string){\n    if(posts[number].wordsSize == 0){\n      return(0,\"\",msg.sender,\"\");\n    }else{\n      Post storage result = posts[number];\n      return (result.wordsSize, result.words[index].word, result.words[index].from, result.words[index].timestamp);\n    }\n  }\n}\n",
  "sourcePath": "E:\\testDapp\\MyDapp\\contracts\\SimpleStorage.sol",
  "compiler": {
    "name": "solc",
    "version": "0.4.24+commit.e67f0147.Emscripten.clang"
  },
  "schemaVersion": "2.0.1",
  "updatedAt": "2018-11-23T06:35:45.316Z"
}